{
  "contractName": "EnergySolar",
  "abi": [
    {
      "inputs": [],
      "stateMutability": "nonpayable",
      "type": "constructor"
    },
    {
      "anonymous": false,
      "inputs": [
        {
          "indexed": true,
          "internalType": "address",
          "name": "buyer",
          "type": "address"
        },
        {
          "indexed": true,
          "internalType": "address",
          "name": "seller",
          "type": "address"
        },
        {
          "indexed": false,
          "internalType": "uint256",
          "name": "energyAmount",
          "type": "uint256"
        },
        {
          "indexed": false,
          "internalType": "uint256",
          "name": "price",
          "type": "uint256"
        },
        {
          "indexed": false,
          "internalType": "uint256",
          "name": "timestamp",
          "type": "uint256"
        }
      ],
      "name": "EnergyBought",
      "type": "event"
    },
    {
      "anonymous": false,
      "inputs": [
        {
          "indexed": true,
          "internalType": "address",
          "name": "seller",
          "type": "address"
        },
        {
          "indexed": false,
          "internalType": "uint256",
          "name": "offerId",
          "type": "uint256"
        },
        {
          "indexed": false,
          "internalType": "uint256",
          "name": "energyAmount",
          "type": "uint256"
        },
        {
          "indexed": false,
          "internalType": "uint256",
          "name": "pricePerUnit",
          "type": "uint256"
        },
        {
          "indexed": false,
          "internalType": "uint256",
          "name": "timestamp",
          "type": "uint256"
        }
      ],
      "name": "EnergyOfferCreated",
      "type": "event"
    },
    {
      "anonymous": false,
      "inputs": [
        {
          "indexed": true,
          "internalType": "address",
          "name": "user",
          "type": "address"
        },
        {
          "indexed": false,
          "internalType": "uint256",
          "name": "produced",
          "type": "uint256"
        },
        {
          "indexed": false,
          "internalType": "uint256",
          "name": "consumed",
          "type": "uint256"
        },
        {
          "indexed": false,
          "internalType": "uint256",
          "name": "netEnergy",
          "type": "uint256"
        },
        {
          "indexed": false,
          "internalType": "uint256",
          "name": "timestamp",
          "type": "uint256"
        }
      ],
      "name": "EnergyUpdated",
      "type": "event"
    },
    {
      "anonymous": false,
      "inputs": [
        {
          "indexed": true,
          "internalType": "address",
          "name": "user",
          "type": "address"
        },
        {
          "indexed": false,
          "internalType": "uint256",
          "name": "missingEnergy",
          "type": "uint256"
        },
        {
          "indexed": false,
          "internalType": "uint256",
          "name": "timestamp",
          "type": "uint256"
        }
      ],
      "name": "MissingEnergy",
      "type": "event"
    },
    {
      "anonymous": false,
      "inputs": [
        {
          "indexed": false,
          "internalType": "uint256",
          "name": "offerId",
          "type": "uint256"
        }
      ],
      "name": "OfferDeleted",
      "type": "event"
    },
    {
      "anonymous": false,
      "inputs": [
        {
          "indexed": true,
          "internalType": "address",
          "name": "seller",
          "type": "address"
        },
        {
          "indexed": false,
          "internalType": "uint256",
          "name": "offerId",
          "type": "uint256"
        },
        {
          "indexed": false,
          "internalType": "uint256",
          "name": "timestamp",
          "type": "uint256"
        }
      ],
      "name": "OfferDepleted",
      "type": "event"
    },
    {
      "anonymous": false,
      "inputs": [
        {
          "indexed": false,
          "internalType": "uint256",
          "name": "offerId",
          "type": "uint256"
        },
        {
          "indexed": false,
          "internalType": "uint256",
          "name": "newEnergyAmount",
          "type": "uint256"
        },
        {
          "indexed": false,
          "internalType": "uint256",
          "name": "newPricePerUnit",
          "type": "uint256"
        }
      ],
      "name": "OfferUpdated",
      "type": "event"
    },
    {
      "anonymous": false,
      "inputs": [
        {
          "indexed": false,
          "internalType": "uint256",
          "name": "_id",
          "type": "uint256"
        }
      ],
      "name": "UserAdded",
      "type": "event"
    },
    {
      "anonymous": false,
      "inputs": [
        {
          "indexed": false,
          "internalType": "uint256",
          "name": "_id",
          "type": "uint256"
        }
      ],
      "name": "UserDeleted",
      "type": "event"
    },
    {
      "anonymous": false,
      "inputs": [
        {
          "indexed": false,
          "internalType": "uint256",
          "name": "_id",
          "type": "uint256"
        }
      ],
      "name": "UserEdited",
      "type": "event"
    },
    {
      "inputs": [],
      "name": "UserCount",
      "outputs": [
        {
          "internalType": "uint256",
          "name": "",
          "type": "uint256"
        }
      ],
      "stateMutability": "view",
      "type": "function",
      "constant": true
    },
    {
      "inputs": [
        {
          "internalType": "address",
          "name": "",
          "type": "address"
        }
      ],
      "name": "balances",
      "outputs": [
        {
          "internalType": "uint256",
          "name": "",
          "type": "uint256"
        }
      ],
      "stateMutability": "view",
      "type": "function",
      "constant": true
    },
    {
      "inputs": [
        {
          "internalType": "address",
          "name": "",
          "type": "address"
        },
        {
          "internalType": "uint256",
          "name": "",
          "type": "uint256"
        }
      ],
      "name": "energyOffers",
      "outputs": [
        {
          "internalType": "uint256",
          "name": "id",
          "type": "uint256"
        },
        {
          "internalType": "uint256",
          "name": "energyAmount",
          "type": "uint256"
        },
        {
          "internalType": "uint256",
          "name": "pricePerUnit",
          "type": "uint256"
        },
        {
          "internalType": "uint256",
          "name": "timestamp",
          "type": "uint256"
        },
        {
          "internalType": "address",
          "name": "owner",
          "type": "address"
        },
        {
          "internalType": "bool",
          "name": "isActive",
          "type": "bool"
        }
      ],
      "stateMutability": "view",
      "type": "function",
      "constant": true
    },
    {
      "inputs": [
        {
          "internalType": "address",
          "name": "",
          "type": "address"
        },
        {
          "internalType": "uint256",
          "name": "",
          "type": "uint256"
        }
      ],
      "name": "energyRecords",
      "outputs": [
        {
          "internalType": "uint256",
          "name": "produced",
          "type": "uint256"
        },
        {
          "internalType": "uint256",
          "name": "consumed",
          "type": "uint256"
        },
        {
          "internalType": "uint256",
          "name": "timestamp",
          "type": "uint256"
        }
      ],
      "stateMutability": "view",
      "type": "function",
      "constant": true
    },
    {
      "inputs": [
        {
          "internalType": "address",
          "name": "",
          "type": "address"
        }
      ],
      "name": "missingEnergyRecords",
      "outputs": [
        {
          "internalType": "uint256",
          "name": "",
          "type": "uint256"
        }
      ],
      "stateMutability": "view",
      "type": "function",
      "constant": true
    },
    {
      "inputs": [
        {
          "internalType": "address",
          "name": "",
          "type": "address"
        }
      ],
      "name": "userBalances",
      "outputs": [
        {
          "internalType": "uint256",
          "name": "",
          "type": "uint256"
        }
      ],
      "stateMutability": "view",
      "type": "function",
      "constant": true
    },
    {
      "inputs": [
        {
          "internalType": "uint256",
          "name": "",
          "type": "uint256"
        }
      ],
      "name": "users",
      "outputs": [
        {
          "internalType": "uint256",
          "name": "id",
          "type": "uint256"
        },
        {
          "internalType": "string",
          "name": "name",
          "type": "string"
        },
        {
          "internalType": "string",
          "name": "password",
          "type": "string"
        },
        {
          "internalType": "string",
          "name": "phone",
          "type": "string"
        }
      ],
      "stateMutability": "view",
      "type": "function",
      "constant": true
    },
    {
      "inputs": [
        {
          "internalType": "uint256",
          "name": "energyAmount",
          "type": "uint256"
        },
        {
          "internalType": "uint256",
          "name": "pricePerUnit",
          "type": "uint256"
        }
      ],
      "name": "createEnergyOffer",
      "outputs": [],
      "stateMutability": "nonpayable",
      "type": "function"
    },
    {
      "inputs": [
        {
          "internalType": "address",
          "name": "user",
          "type": "address"
        }
      ],
      "name": "getEnergyOffers",
      "outputs": [
        {
          "components": [
            {
              "internalType": "uint256",
              "name": "id",
              "type": "uint256"
            },
            {
              "internalType": "uint256",
              "name": "energyAmount",
              "type": "uint256"
            },
            {
              "internalType": "uint256",
              "name": "pricePerUnit",
              "type": "uint256"
            },
            {
              "internalType": "uint256",
              "name": "timestamp",
              "type": "uint256"
            },
            {
              "internalType": "address",
              "name": "owner",
              "type": "address"
            },
            {
              "internalType": "bool",
              "name": "isActive",
              "type": "bool"
            }
          ],
          "internalType": "struct EnergySolar.EnergyOffer[]",
          "name": "",
          "type": "tuple[]"
        }
      ],
      "stateMutability": "view",
      "type": "function",
      "constant": true
    },
    {
      "inputs": [
        {
          "internalType": "uint256",
          "name": "produced",
          "type": "uint256"
        },
        {
          "internalType": "uint256",
          "name": "consumed",
          "type": "uint256"
        }
      ],
      "name": "recordEnergyProduction",
      "outputs": [],
      "stateMutability": "nonpayable",
      "type": "function"
    },
    {
      "inputs": [
        {
          "internalType": "address",
          "name": "user",
          "type": "address"
        }
      ],
      "name": "getMissingEnergy",
      "outputs": [
        {
          "internalType": "uint256",
          "name": "",
          "type": "uint256"
        }
      ],
      "stateMutability": "view",
      "type": "function",
      "constant": true
    },
    {
      "inputs": [
        {
          "internalType": "address",
          "name": "seller",
          "type": "address"
        },
        {
          "internalType": "uint256",
          "name": "offerId",
          "type": "uint256"
        },
        {
          "internalType": "uint256",
          "name": "energyAmount",
          "type": "uint256"
        }
      ],
      "name": "buyEnergy",
      "outputs": [],
      "stateMutability": "payable",
      "type": "function",
      "payable": true
    },
    {
      "inputs": [
        {
          "internalType": "address",
          "name": "user",
          "type": "address"
        }
      ],
      "name": "getEnergyRecords",
      "outputs": [
        {
          "components": [
            {
              "internalType": "uint256",
              "name": "produced",
              "type": "uint256"
            },
            {
              "internalType": "uint256",
              "name": "consumed",
              "type": "uint256"
            },
            {
              "internalType": "uint256",
              "name": "timestamp",
              "type": "uint256"
            }
          ],
          "internalType": "struct EnergySolar.EnergyRecord[]",
          "name": "",
          "type": "tuple[]"
        }
      ],
      "stateMutability": "view",
      "type": "function",
      "constant": true
    },
    {
      "inputs": [
        {
          "internalType": "address",
          "name": "user",
          "type": "address"
        }
      ],
      "name": "getTotalProduction",
      "outputs": [
        {
          "internalType": "uint256",
          "name": "totalProduced",
          "type": "uint256"
        }
      ],
      "stateMutability": "view",
      "type": "function",
      "constant": true
    },
    {
      "inputs": [
        {
          "internalType": "address",
          "name": "user",
          "type": "address"
        }
      ],
      "name": "getTotalConsumption",
      "outputs": [
        {
          "internalType": "uint256",
          "name": "totalConsumed",
          "type": "uint256"
        }
      ],
      "stateMutability": "view",
      "type": "function",
      "constant": true
    },
    {
      "inputs": [
        {
          "internalType": "address",
          "name": "user",
          "type": "address"
        }
      ],
      "name": "getNetEnergy",
      "outputs": [
        {
          "internalType": "int256",
          "name": "",
          "type": "int256"
        }
      ],
      "stateMutability": "view",
      "type": "function",
      "constant": true
    },
    {
      "inputs": [
        {
          "internalType": "address",
          "name": "user",
          "type": "address"
        }
      ],
      "name": "getEnergyDataForGraph",
      "outputs": [
        {
          "internalType": "uint256[]",
          "name": "productions",
          "type": "uint256[]"
        },
        {
          "internalType": "uint256[]",
          "name": "consumptions",
          "type": "uint256[]"
        },
        {
          "internalType": "uint256[]",
          "name": "timestamps",
          "type": "uint256[]"
        }
      ],
      "stateMutability": "view",
      "type": "function",
      "constant": true
    },
    {
      "inputs": [
        {
          "internalType": "uint256",
          "name": "offerId",
          "type": "uint256"
        },
        {
          "internalType": "uint256",
          "name": "newEnergyAmount",
          "type": "uint256"
        },
        {
          "internalType": "uint256",
          "name": "newPricePerUnit",
          "type": "uint256"
        }
      ],
      "name": "editEnergyOffer",
      "outputs": [],
      "stateMutability": "nonpayable",
      "type": "function"
    },
    {
      "inputs": [
        {
          "internalType": "uint256",
          "name": "offerId",
          "type": "uint256"
        }
      ],
      "name": "deleteEnergyOffer",
      "outputs": [],
      "stateMutability": "nonpayable",
      "type": "function"
    },
    {
      "inputs": [],
      "name": "getUserCount",
      "outputs": [
        {
          "internalType": "uint256",
          "name": "",
          "type": "uint256"
        }
      ],
      "stateMutability": "view",
      "type": "function",
      "constant": true
    },
    {
      "inputs": [
        {
          "internalType": "string",
          "name": "_name",
          "type": "string"
        },
        {
          "internalType": "string",
          "name": "_password",
          "type": "string"
        },
        {
          "internalType": "string",
          "name": "_phone",
          "type": "string"
        }
      ],
      "name": "addUser",
      "outputs": [],
      "stateMutability": "nonpayable",
      "type": "function"
    },
    {
      "inputs": [
        {
          "internalType": "uint256",
          "name": "_id",
          "type": "uint256"
        }
      ],
      "name": "deleteUser",
      "outputs": [],
      "stateMutability": "nonpayable",
      "type": "function"
    },
    {
      "inputs": [
        {
          "internalType": "uint256",
          "name": "_id",
          "type": "uint256"
        },
        {
          "internalType": "string",
          "name": "_name",
          "type": "string"
        },
        {
          "internalType": "string",
          "name": "_password",
          "type": "string"
        },
        {
          "internalType": "string",
          "name": "_phone",
          "type": "string"
        }
      ],
      "name": "editUser",
      "outputs": [],
      "stateMutability": "nonpayable",
      "type": "function"
    },
    {
      "inputs": [
        {
          "internalType": "string",
          "name": "_name",
          "type": "string"
        },
        {
          "internalType": "string",
          "name": "_password",
          "type": "string"
        }
      ],
      "name": "signin",
      "outputs": [
        {
          "internalType": "bool",
          "name": "",
          "type": "bool"
        }
      ],
      "stateMutability": "view",
      "type": "function",
      "constant": true
    }
  ],
  "bytecode": "0x6080604052600060075534801561001557600080fd5b506000600181905550613b208061002d6000396000f3fe60806040526004361061014b5760003560e01c8063875723d4116100b6578063b5cb15f71161006f578063b5cb15f71461050d578063d1e8ebba14610538578063e232152114610575578063e3ec1115146105b2578063f08b99ab146105db578063fe6fb77d146106045761014b565b8063875723d4146103ac5780638b191cf2146103eb5780639367f4ff1461042d57806395bf852d1461046a57806395c5fed4146104a7578063990a4a9a146104d05761014b565b8063365b98b211610108578063365b98b21461027757806338f14845146102b757806349703bfb146102e05780636aafd358146103095780637cffc46d146103465780638239817a1461036f5761014b565b80631082eb941461015057806315931724146101795780631fe6da35146101a457806326224c64146101e157806327e235e31461021e57806332add8331461025b575b600080fd5b34801561015c57600080fd5b5061017760048036038101906101729190612a0c565b610643565b005b34801561018557600080fd5b5061018e610abf565b60405161019b919061344f565b60405180910390f35b3480156101b057600080fd5b506101cb60048036038101906101c69190612855565b610ac5565b6040516101d8919061344f565b60405180910390f35b3480156101ed57600080fd5b5061020860048036038101906102039190612855565b610bf5565b604051610215919061344f565b60405180910390f35b34801561022a57600080fd5b5061024560048036038101906102409190612855565b610c0d565b604051610252919061344f565b60405180910390f35b610275600480360381019061027091906128ba565b610c25565b005b34801561028357600080fd5b5061029e60048036038101906102999190612a0c565b61111d565b6040516102ae949392919061346a565b60405180910390f35b3480156102c357600080fd5b506102de60048036038101906102d99190612a0c565b6112e5565b005b3480156102ec57600080fd5b5061030760048036038101906103029190612a35565b611385565b005b34801561031557600080fd5b50610330600480360381019061032b9190612855565b61145a565b60405161033d919061344f565b60405180910390f35b34801561035257600080fd5b5061036d60048036038101906103689190612ae0565b6114a3565b005b34801561037b57600080fd5b5061039660048036038101906103919190612855565b6117ce565b6040516103a39190613246565b60405180910390f35b3480156103b857600080fd5b506103d360048036038101906103ce9190612855565b61188a565b6040516103e293929190613268565b60405180910390f35b3480156103f757600080fd5b50610412600480360381019061040d919061287e565b611c02565b60405161042496959493929190613569565b60405180910390f35b34801561043957600080fd5b50610454600480360381019061044f9190612855565b611c88565b604051610461919061344f565b60405180910390f35b34801561047657600080fd5b50610491600480360381019061048c9190612855565b611db8565b60405161049e919061344f565b60405180910390f35b3480156104b357600080fd5b506104ce60048036038101906104c99190612975565b611dd0565b005b3480156104dc57600080fd5b506104f760048036038101906104f29190612909565b611f01565b60405161050491906132b4565b60405180910390f35b34801561051957600080fd5b50610522611fb1565b60405161052f919061344f565b60405180910390f35b34801561054457600080fd5b5061055f600480360381019061055a9190612855565b611fbb565b60405161056c9190613224565b60405180910390f35b34801561058157600080fd5b5061059c60048036038101906105979190612855565b6120f2565b6040516105a991906132cf565b60405180910390f35b3480156105be57600080fd5b506105d960048036038101906105d49190612ae0565b612122565b005b3480156105e757600080fd5b5061060260048036038101906105fd9190612b1c565b6123b0565b005b34801561061057600080fd5b5061062b6004803603810190610626919061287e565b612646565b60405161063a939291906134ed565b60405180910390f35b60008060005b600360003373ffffffffffffffffffffffffffffffffffffffff1673ffffffffffffffffffffffffffffffffffffffff168152602001908152602001600020805490508110156107425783600360003373ffffffffffffffffffffffffffffffffffffffff1673ffffffffffffffffffffffffffffffffffffffff168152602001908152602001600020828154811061070b577f4e487b7100000000000000000000000000000000000000000000000000000000600052603260045260246000fd5b906000526020600020906005020160000154141561072f5760019250809150610742565b808061073a9061398c565b915050610649565b5081610783576040517f08c379a000000000000000000000000000000000000000000000000000000000815260040161077a9061338f565b60405180910390fd5b600360003373ffffffffffffffffffffffffffffffffffffffff1673ffffffffffffffffffffffffffffffffffffffff1681526020019081526020016000206001600360003373ffffffffffffffffffffffffffffffffffffffff1673ffffffffffffffffffffffffffffffffffffffff168152602001908152602001600020805490506108119190613856565b81548110610848577f4e487b7100000000000000000000000000000000000000000000000000000000600052603260045260246000fd5b9060005260206000209060050201600360003373ffffffffffffffffffffffffffffffffffffffff1673ffffffffffffffffffffffffffffffffffffffff16815260200190815260200160002082815481106108cd577f4e487b7100000000000000000000000000000000000000000000000000000000600052603260045260246000fd5b9060005260206000209060050201600082015481600001556001820154816001015560028201548160020155600382015481600301556004820160009054906101000a900473ffffffffffffffffffffffffffffffffffffffff168160040160006101000a81548173ffffffffffffffffffffffffffffffffffffffff021916908373ffffffffffffffffffffffffffffffffffffffff1602179055506004820160149054906101000a900460ff168160040160146101000a81548160ff021916908315150217905550905050600360003373ffffffffffffffffffffffffffffffffffffffff1673ffffffffffffffffffffffffffffffffffffffff168152602001908152602001600020805480610a0f577f4e487b7100000000000000000000000000000000000000000000000000000000600052603160045260246000fd5b60019003818190600052602060002090600502016000808201600090556001820160009055600282016000905560038201600090556004820160006101000a81549073ffffffffffffffffffffffffffffffffffffffff02191690556004820160146101000a81549060ff0219169055505090557f88686b85d6f2c3ab9a04e4f15a22fcfa025ffd97226dcf0a67cdf682def5567683604051610ab2919061344f565b60405180910390a1505050565b60015481565b600080600460008473ffffffffffffffffffffffffffffffffffffffff1673ffffffffffffffffffffffffffffffffffffffff168152602001908152602001600020805480602002602001604051908101604052809291908181526020016000905b82821015610b775783829060005260206000209060030201604051806060016040529081600082015481526020016001820154815260200160028201548152505081526020019060010190610b27565b50505050905060005b8151811015610bee57818181518110610bc2577f4e487b7100000000000000000000000000000000000000000000000000000000600052603260045260246000fd5b60200260200101516000015183610bd99190613712565b92508080610be69061398c565b915050610b80565b5050919050565b60006020528060005260406000206000915090505481565b60056020528060005260406000206000915090505481565b6000600360008573ffffffffffffffffffffffffffffffffffffffff1673ffffffffffffffffffffffffffffffffffffffff1681526020019081526020016000208381548110610c9e577f4e487b7100000000000000000000000000000000000000000000000000000000600052603260045260246000fd5b906000526020600020906005020190508060040160149054906101000a900460ff16610cff576040517f08c379a0000000000000000000000000000000000000000000000000000000008152600401610cf69061340f565b60405180910390fd5b8181600101541015610d46576040517f08c379a0000000000000000000000000000000000000000000000000000000008152600401610d3d906133cf565b60405180910390fd5b6000816002015483610d589190613768565b905080341015610d9d576040517f08c379a0000000000000000000000000000000000000000000000000000000008152600401610d94906133af565b60405180910390fd5b6000600460008773ffffffffffffffffffffffffffffffffffffffff1673ffffffffffffffffffffffffffffffffffffffff1681526020019081526020016000208054905011610e22576040517f08c379a0000000000000000000000000000000000000000000000000000000008152600401610e199061334f565b60405180910390fd5b82826001016000828254610e369190613856565b92505081905550600082600101541415610eb85760008260040160146101000a81548160ff0219169083151502179055508473ffffffffffffffffffffffffffffffffffffffff167fa10992b70b11c34ced205c8412bd1a3ebcbf00a05dd4fe404ccbed97587438c48542604051610eaf9291906134c4565b60405180910390a25b600460008673ffffffffffffffffffffffffffffffffffffffff1673ffffffffffffffffffffffffffffffffffffffff1681526020019081526020016000206040518060600160405280600081526020018581526020014281525090806001815401808255809150506001900390600052602060002090600302016000909190919091506000820151816000015560208201518160010155604082015181600201555050600460003373ffffffffffffffffffffffffffffffffffffffff1673ffffffffffffffffffffffffffffffffffffffff168152602001908152602001600020604051806060016040528085815260200160008152602001428152509080600181540180825580915050600190039060005260206000209060030201600090919091909150600082015181600001556020820151816001015560408201518160020155505060008573ffffffffffffffffffffffffffffffffffffffff16346040516110269061320f565b60006040518083038185875af1925050503d8060008114611063576040519150601f19603f3d011682016040523d82523d6000602084013e611068565b606091505b50509050806110ac576040517f08c379a00000000000000000000000000000000000000000000000000000000081526004016110a39061336f565b60405180910390fd5b8573ffffffffffffffffffffffffffffffffffffffff163373ffffffffffffffffffffffffffffffffffffffff167fb51cce4c6cb605247d442a5f34efcc9f7f97252497a952e6ad7a58e814c89d7686854260405161110d939291906134ed565b60405180910390a3505050505050565b60026020528060005260406000206000915090508060000154908060010180546111469061395a565b80601f01602080910402602001604051908101604052809291908181526020018280546111729061395a565b80156111bf5780601f10611194576101008083540402835291602001916111bf565b820191906000526020600020905b8154815290600101906020018083116111a257829003601f168201915b5050505050908060020180546111d49061395a565b80601f01602080910402602001604051908101604052809291908181526020018280546112009061395a565b801561124d5780601f106112225761010080835404028352916020019161124d565b820191906000526020600020905b81548152906001019060200180831161123057829003601f168201915b5050505050908060030180546112629061395a565b80601f016020809104026020016040519081016040528092919081815260200182805461128e9061395a565b80156112db5780601f106112b0576101008083540402835291602001916112db565b820191906000526020600020905b8154815290600101906020018083116112be57829003601f168201915b5050505050905084565b60026000828152602001908152602001600020600080820160009055600182016000611311919061268d565b600282016000611321919061268d565b600382016000611331919061268d565b50506001600081548092919061134690613930565b91905055507f42a77abd0397855f875460bb511f41935bfa5f396b556d95717d8c2e08334aae8160405161137a919061344f565b60405180910390a150565b604051806080016040528085815260200184815260200183815260200182815250600260008681526020019081526020016000206000820151816000015560208201518160010190805190602001906113df9291906126cd565b5060408201518160020190805190602001906113fc9291906126cd565b5060608201518160030190805190602001906114199291906126cd565b509050507f29c9c79f57240563ee819e941228a194b90bb9ed36d4ee0b610e897d8712f5ae8460405161144c919061344f565b60405180910390a150505050565b6000600660008373ffffffffffffffffffffffffffffffffffffffff1673ffffffffffffffffffffffffffffffffffffffff168152602001908152602001600020549050919050565b600460003373ffffffffffffffffffffffffffffffffffffffff1673ffffffffffffffffffffffffffffffffffffffff16815260200190815260200160002060405180606001604052808481526020018381526020014281525090806001815401808255809150506001900390600052602060002090600302016000909190919091506000820151816000015560208201518160010155604082015181600201555050600061155133610ac5565b9050600061155e33611c88565b90506000818361156e91906137c2565b905060008112156116c257600081611585906139d5565b905080600660003373ffffffffffffffffffffffffffffffffffffffff1673ffffffffffffffffffffffffffffffffffffffff16815260200190815260200160002081905550600460003373ffffffffffffffffffffffffffffffffffffffff1673ffffffffffffffffffffffffffffffffffffffff16815260200190815260200160002060006116169190612753565b3373ffffffffffffffffffffffffffffffffffffffff167f854a40f95520fcda949ec919876ae7e5b625b9490ef2f43ca2b11718e64da5b9824260405161165e9291906134c4565b60405180910390a23373ffffffffffffffffffffffffffffffffffffffff167f5904d7fd09dd42b4091784bf8790273639bfec602ee56d802ef273769f37c0646000806000426040516116b494939291906132ea565b60405180910390a2506117c7565b600081141561177157600460003373ffffffffffffffffffffffffffffffffffffffff1673ffffffffffffffffffffffffffffffffffffffff16815260200190815260200160002060006117169190612753565b3373ffffffffffffffffffffffffffffffffffffffff167f5904d7fd09dd42b4091784bf8790273639bfec602ee56d802ef273769f37c06460008060004260405161176494939291906132ea565b60405180910390a26117c6565b3373ffffffffffffffffffffffffffffffffffffffff167f5904d7fd09dd42b4091784bf8790273639bfec602ee56d802ef273769f37c064848484426040516117bd9493929190613524565b60405180910390a25b5b5050505050565b6060600460008373ffffffffffffffffffffffffffffffffffffffff1673ffffffffffffffffffffffffffffffffffffffff168152602001908152602001600020805480602002602001604051908101604052809291908181526020016000905b8282101561187f578382906000526020600020906003020160405180606001604052908160008201548152602001600182015481526020016002820154815250508152602001906001019061182f565b505050509050919050565b60608060606000600460008673ffffffffffffffffffffffffffffffffffffffff1673ffffffffffffffffffffffffffffffffffffffff1681526020019081526020016000208054905090508067ffffffffffffffff811115611916577f4e487b7100000000000000000000000000000000000000000000000000000000600052604160045260246000fd5b6040519080825280602002602001820160405280156119445781602001602082028036833780820191505090505b5093508067ffffffffffffffff811115611987577f4e487b7100000000000000000000000000000000000000000000000000000000600052604160045260246000fd5b6040519080825280602002602001820160405280156119b55781602001602082028036833780820191505090505b5092508067ffffffffffffffff8111156119f8577f4e487b7100000000000000000000000000000000000000000000000000000000600052604160045260246000fd5b604051908082528060200260200182016040528015611a265781602001602082028036833780820191505090505b50915060008060005b83811015611bf7576000600460008a73ffffffffffffffffffffffffffffffffffffffff1673ffffffffffffffffffffffffffffffffffffffff1681526020019081526020016000208281548110611ab0577f4e487b7100000000000000000000000000000000000000000000000000000000600052603260045260246000fd5b906000526020600020906003020160405180606001604052908160008201548152602001600182015481526020016002820154815250509050806000015184611af99190613712565b9350806020015183611b0b9190613712565b925083888381518110611b47577f4e487b7100000000000000000000000000000000000000000000000000000000600052603260045260246000fd5b60200260200101818152505082878381518110611b8d577f4e487b7100000000000000000000000000000000000000000000000000000000600052603260045260246000fd5b6020026020010181815250508060400151868381518110611bd7577f4e487b7100000000000000000000000000000000000000000000000000000000600052603260045260246000fd5b602002602001018181525050508080611bef9061398c565b915050611a2f565b505050509193909250565b60036020528160005260406000208181548110611c1e57600080fd5b9060005260206000209060050201600091509150508060000154908060010154908060020154908060030154908060040160009054906101000a900473ffffffffffffffffffffffffffffffffffffffff16908060040160149054906101000a900460ff16905086565b600080600460008473ffffffffffffffffffffffffffffffffffffffff1673ffffffffffffffffffffffffffffffffffffffff168152602001908152602001600020805480602002602001604051908101604052809291908181526020016000905b82821015611d3a5783829060005260206000209060030201604051806060016040529081600082015481526020016001820154815260200160028201548152505081526020019060010190611cea565b50505050905060005b8151811015611db157818181518110611d85577f4e487b7100000000000000000000000000000000000000000000000000000000600052603260045260246000fd5b60200260200101516020015183611d9c9190613712565b92508080611da99061398c565b915050611d43565b5050919050565b60066020528060005260406000206000915090505481565b6040518060800160405280600154815260200184815260200183815260200182815250600260006001548152602001908152602001600020600082015181600001556020820151816001019080519060200190611e2e9291906126cd565b506040820151816002019080519060200190611e4b9291906126cd565b506060820151816003019080519060200190611e689291906126cd565b50905050600160008154611e7b9061398c565b9190508190556000803373ffffffffffffffffffffffffffffffffffffffff1673ffffffffffffffffffffffffffffffffffffffff168152602001908152602001600020819055507f27412bb19840b11057dee7c7019767312555c4497d8d4c2383fa6b7791bf014b600154604051611ef4919061344f565b60405180910390a1505050565b600080600090505b600154811015611fa557838051906020012060026000838152602001908152602001600020600101604051611f3e91906131f8565b6040518091039020148015611f835750828051906020012060026000838152602001908152602001600020600201604051611f7991906131f8565b6040518091039020145b15611f92576001915050611fab565b8080611f9d9061398c565b915050611f09565b50600090505b92915050565b6000600154905090565b6060600360008373ffffffffffffffffffffffffffffffffffffffff1673ffffffffffffffffffffffffffffffffffffffff168152602001908152602001600020805480602002602001604051908101604052809291908181526020016000905b828210156120e757838290600052602060002090600502016040518060c0016040529081600082015481526020016001820154815260200160028201548152602001600382015481526020016004820160009054906101000a900473ffffffffffffffffffffffffffffffffffffffff1673ffffffffffffffffffffffffffffffffffffffff1673ffffffffffffffffffffffffffffffffffffffff1681526020016004820160149054906101000a900460ff1615151515815250508152602001906001019061201c565b505050509050919050565b6000806120fe83610ac5565b9050600061210b84611c88565b9050808261211991906137c2565b92505050919050565b60008211612165576040517f08c379a000000000000000000000000000000000000000000000000000000000815260040161215c9061332f565b60405180910390fd5b600081116121a8576040517f08c379a000000000000000000000000000000000000000000000000000000000815260040161219f906133ef565b60405180910390fd5b60006121b3336120f2565b9050828112156121f8576040517f08c379a00000000000000000000000000000000000000000000000000000000081526004016121ef9061342f565b60405180910390fd5b60006007549050600760008154809291906122129061398c565b9190505550600360003373ffffffffffffffffffffffffffffffffffffffff1673ffffffffffffffffffffffffffffffffffffffff1681526020019081526020016000206040518060c001604052808381526020018681526020018581526020014281526020013373ffffffffffffffffffffffffffffffffffffffff1681526020016001151581525090806001815401808255809150506001900390600052602060002090600502016000909190919091506000820151816000015560208201518160010155604082015181600201556060820151816003015560808201518160040160006101000a81548173ffffffffffffffffffffffffffffffffffffffff021916908373ffffffffffffffffffffffffffffffffffffffff16021790555060a08201518160040160146101000a81548160ff02191690831515021790555050503373ffffffffffffffffffffffffffffffffffffffff167feb546b573427d91a998b14320028a093ab801efb1a6cd5e988428c0becf35820828686426040516123a29493929190613524565b60405180910390a250505050565b6000805b600360003373ffffffffffffffffffffffffffffffffffffffff1673ffffffffffffffffffffffffffffffffffffffff168152602001908152602001600020805490508110156125ff5784600360003373ffffffffffffffffffffffffffffffffffffffff1673ffffffffffffffffffffffffffffffffffffffff1681526020019081526020016000208281548110612476577f4e487b7100000000000000000000000000000000000000000000000000000000600052603260045260246000fd5b90600052602060002090600502016000015414156125ec576001915083600360003373ffffffffffffffffffffffffffffffffffffffff1673ffffffffffffffffffffffffffffffffffffffff168152602001908152602001600020828154811061250a577f4e487b7100000000000000000000000000000000000000000000000000000000600052603260045260246000fd5b90600052602060002090600502016001018190555082600360003373ffffffffffffffffffffffffffffffffffffffff1673ffffffffffffffffffffffffffffffffffffffff1681526020019081526020016000208281548110612597577f4e487b7100000000000000000000000000000000000000000000000000000000600052603260045260246000fd5b9060005260206000209060050201600201819055507f67a06c25c70c62c9e84b7fd26a70b3766b7aa7e05a6dd71267eeb737344db4508585856040516125df939291906134ed565b60405180910390a16125ff565b80806125f79061398c565b9150506123b4565b5080612640576040517f08c379a00000000000000000000000000000000000000000000000000000000081526004016126379061338f565b60405180910390fd5b50505050565b6004602052816000526040600020818154811061266257600080fd5b9060005260206000209060030201600091509150508060000154908060010154908060020154905083565b5080546126999061395a565b6000825580601f106126ab57506126ca565b601f0160209004906000526020600020908101906126c99190612777565b5b50565b8280546126d99061395a565b90600052602060002090601f0160209004810192826126fb5760008555612742565b82601f1061271457805160ff1916838001178555612742565b82800160010185558215612742579182015b82811115612741578251825591602001919060010190612726565b5b50905061274f9190612777565b5090565b50805460008255600302906000526020600020908101906127749190612794565b50565b5b80821115612790576000816000905550600101612778565b5090565b5b808211156127bf576000808201600090556001820160009055600282016000905550600301612795565b5090565b60006127d66127d1846135fb565b6135ca565b9050828152602081018484840111156127ee57600080fd5b6127f98482856138ee565b509392505050565b60008135905061281081613abc565b92915050565b600082601f83011261282757600080fd5b81356128378482602086016127c3565b91505092915050565b60008135905061284f81613ad3565b92915050565b60006020828403121561286757600080fd5b600061287584828501612801565b91505092915050565b6000806040838503121561289157600080fd5b600061289f85828601612801565b92505060206128b085828601612840565b9150509250929050565b6000806000606084860312156128cf57600080fd5b60006128dd86828701612801565b93505060206128ee86828701612840565b92505060406128ff86828701612840565b9150509250925092565b6000806040838503121561291c57600080fd5b600083013567ffffffffffffffff81111561293657600080fd5b61294285828601612816565b925050602083013567ffffffffffffffff81111561295f57600080fd5b61296b85828601612816565b9150509250929050565b60008060006060848603121561298a57600080fd5b600084013567ffffffffffffffff8111156129a457600080fd5b6129b086828701612816565b935050602084013567ffffffffffffffff8111156129cd57600080fd5b6129d986828701612816565b925050604084013567ffffffffffffffff8111156129f657600080fd5b612a0286828701612816565b9150509250925092565b600060208284031215612a1e57600080fd5b6000612a2c84828501612840565b91505092915050565b60008060008060808587031215612a4b57600080fd5b6000612a5987828801612840565b945050602085013567ffffffffffffffff811115612a7657600080fd5b612a8287828801612816565b935050604085013567ffffffffffffffff811115612a9f57600080fd5b612aab87828801612816565b925050606085013567ffffffffffffffff811115612ac857600080fd5b612ad487828801612816565b91505092959194509250565b60008060408385031215612af357600080fd5b6000612b0185828601612840565b9250506020612b1285828601612840565b9150509250929050565b600080600060608486031215612b3157600080fd5b6000612b3f86828701612840565b9350506020612b5086828701612840565b9250506040612b6186828701612840565b9150509250925092565b6000612b77838361311d565b60c08301905092915050565b6000612b8f8383613198565b60608301905092915050565b6000612ba783836131da565b60208301905092915050565b612bbc8161388a565b82525050565b612bcb8161388a565b82525050565b6000612bdc82613670565b612be681856136c3565b9350612bf18361362b565b8060005b83811015612c22578151612c098882612b6b565b9750612c148361369c565b925050600181019050612bf5565b5085935050505092915050565b6000612c3a8261367b565b612c4481856136d4565b9350612c4f8361363b565b8060005b83811015612c80578151612c678882612b83565b9750612c72836136a9565b925050600181019050612c53565b5085935050505092915050565b6000612c9882613686565b612ca281856136e5565b9350612cad8361364b565b8060005b83811015612cde578151612cc58882612b9b565b9750612cd0836136b6565b925050600181019050612cb1565b5085935050505092915050565b612cf48161389c565b82525050565b612d038161389c565b82525050565b60008154612d168161395a565b612d2081866136f6565b94506001821660008114612d3b5760018114612d4c57612d7f565b60ff19831686528186019350612d7f565b612d558561365b565b60005b83811015612d7757815481890152600182019150602081019050612d58565b838801955050505b50505092915050565b612d91816138a8565b82525050565b612da0816138dc565b82525050565b6000612db182613691565b612dbb8185613701565b9350612dcb8185602086016138fd565b612dd481613aab565b840191505092915050565b6000612dec602883613701565b91507f456e6572677920616d6f756e74206d757374206265206772656174657220746860008301527f616e207a65726f2e0000000000000000000000000000000000000000000000006020830152604082019050919050565b6000612e52601d83613701565b91507f53656c6c657220686173206e6f20656e65726779207265636f7264732e0000006000830152602082019050919050565b6000612e92602383613701565b91507f4661696c656420746f207472616e7366657220457468657220746f2073656c6c60008301527f65722e00000000000000000000000000000000000000000000000000000000006020830152604082019050919050565b6000612ef8601483613701565b91507f4f6666657220646f6573206e6f742065786973740000000000000000000000006000830152602082019050919050565b6000612f38602583613701565b91507f496e73756666696369656e742066756e647320746f206275792074686520656e60008301527f657267792e0000000000000000000000000000000000000000000000000000006020830152604082019050919050565b6000612f9e602a83613701565b91507f4e6f7420656e6f75676820656e6572677920617661696c61626c6520666f722060008301527f74686973206f66666572000000000000000000000000000000000000000000006020830152604082019050919050565b6000613004602983613701565b91507f50726963652070657220756e6974206d7573742062652067726561746572207460008301527f68616e207a65726f2e00000000000000000000000000000000000000000000006020830152604082019050919050565b600061306a6000836136f6565b9150600082019050919050565b6000613084601983613701565b91507f4f66666572206973206e6f206c6f6e67657220616374697665000000000000006000830152602082019050919050565b60006130c4602a83613701565b91507f4f6666657220656e657267792065786365656473206e657420656e657267792060008301527f617661696c61626c652e000000000000000000000000000000000000000000006020830152604082019050919050565b60c08201600082015161313360008501826131da565b50602082015161314660208501826131da565b50604082015161315960408501826131da565b50606082015161316c60608501826131da565b50608082015161317f6080850182612bb3565b5060a082015161319260a0850182612ceb565b50505050565b6060820160008201516131ae60008501826131da565b5060208201516131c160208501826131da565b5060408201516131d460408501826131da565b50505050565b6131e3816138d2565b82525050565b6131f2816138d2565b82525050565b60006132048284612d09565b915081905092915050565b600061321a8261305d565b9150819050919050565b6000602082019050818103600083015261323e8184612bd1565b905092915050565b600060208201905081810360008301526132608184612c2f565b905092915050565b600060608201905081810360008301526132828186612c8d565b905081810360208301526132968185612c8d565b905081810360408301526132aa8184612c8d565b9050949350505050565b60006020820190506132c96000830184612cfa565b92915050565b60006020820190506132e46000830184612d88565b92915050565b60006080820190506132ff6000830187612d97565b61330c6020830186612d97565b6133196040830185612d97565b61332660608301846131e9565b95945050505050565b6000602082019050818103600083015261334881612ddf565b9050919050565b6000602082019050818103600083015261336881612e45565b9050919050565b6000602082019050818103600083015261338881612e85565b9050919050565b600060208201905081810360008301526133a881612eeb565b9050919050565b600060208201905081810360008301526133c881612f2b565b9050919050565b600060208201905081810360008301526133e881612f91565b9050919050565b6000602082019050818103600083015261340881612ff7565b9050919050565b6000602082019050818103600083015261342881613077565b9050919050565b60006020820190508181036000830152613448816130b7565b9050919050565b600060208201905061346460008301846131e9565b92915050565b600060808201905061347f60008301876131e9565b81810360208301526134918186612da6565b905081810360408301526134a58185612da6565b905081810360608301526134b98184612da6565b905095945050505050565b60006040820190506134d960008301856131e9565b6134e660208301846131e9565b9392505050565b600060608201905061350260008301866131e9565b61350f60208301856131e9565b61351c60408301846131e9565b949350505050565b600060808201905061353960008301876131e9565b61354660208301866131e9565b61355360408301856131e9565b61356060608301846131e9565b95945050505050565b600060c08201905061357e60008301896131e9565b61358b60208301886131e9565b61359860408301876131e9565b6135a560608301866131e9565b6135b26080830185612bc2565b6135bf60a0830184612cfa565b979650505050505050565b6000604051905081810181811067ffffffffffffffff821117156135f1576135f0613a7c565b5b8060405250919050565b600067ffffffffffffffff82111561361657613615613a7c565b5b601f19601f8301169050602081019050919050565b6000819050602082019050919050565b6000819050602082019050919050565b6000819050602082019050919050565b60008190508160005260206000209050919050565b600081519050919050565b600081519050919050565b600081519050919050565b600081519050919050565b6000602082019050919050565b6000602082019050919050565b6000602082019050919050565b600082825260208201905092915050565b600082825260208201905092915050565b600082825260208201905092915050565b600081905092915050565b600082825260208201905092915050565b600061371d826138d2565b9150613728836138d2565b9250827fffffffffffffffffffffffffffffffffffffffffffffffffffffffffffffffff0382111561375d5761375c613a1e565b5b828201905092915050565b6000613773826138d2565b915061377e836138d2565b9250817fffffffffffffffffffffffffffffffffffffffffffffffffffffffffffffffff04831182151516156137b7576137b6613a1e565b5b828202905092915050565b60006137cd826138a8565b91506137d8836138a8565b9250827f80000000000000000000000000000000000000000000000000000000000000000182126000841215161561381357613812613a1e565b5b827f7fffffffffffffffffffffffffffffffffffffffffffffffffffffffffffffff01821360008412161561384b5761384a613a1e565b5b828203905092915050565b6000613861826138d2565b915061386c836138d2565b92508282101561387f5761387e613a1e565b5b828203905092915050565b6000613895826138b2565b9050919050565b60008115159050919050565b6000819050919050565b600073ffffffffffffffffffffffffffffffffffffffff82169050919050565b6000819050919050565b60006138e7826138d2565b9050919050565b82818337600083830152505050565b60005b8381101561391b578082015181840152602081019050613900565b8381111561392a576000848401525b50505050565b600061393b826138d2565b9150600082141561394f5761394e613a1e565b5b600182039050919050565b6000600282049050600182168061397257607f821691505b6020821081141561398657613985613a4d565b5b50919050565b6000613997826138d2565b91507fffffffffffffffffffffffffffffffffffffffffffffffffffffffffffffffff8214156139ca576139c9613a1e565b5b600182019050919050565b60006139e0826138a8565b91507f8000000000000000000000000000000000000000000000000000000000000000821415613a1357613a12613a1e565b5b816000039050919050565b7f4e487b7100000000000000000000000000000000000000000000000000000000600052601160045260246000fd5b7f4e487b7100000000000000000000000000000000000000000000000000000000600052602260045260246000fd5b7f4e487b7100000000000000000000000000000000000000000000000000000000600052604160045260246000fd5b6000601f19601f8301169050919050565b613ac58161388a565b8114613ad057600080fd5b50565b613adc816138d2565b8114613ae757600080fd5b5056fea2646970667358221220200a8d3d9dc792a7582fe7680eefd4d5397d5d96c6f2edc4b5c3f1e8b9ecb73964736f6c63430008000033",
  "immutableReferences": {},
  "source": "//SPDX-License-Identifier: MIT\r\npragma solidity ^0.8.0;\r\n\r\ncontract EnergySolar {\r\n    constructor(){\r\n        UserCount = 0;     \r\n    }\r\n    \r\n    // Structure pour stocker la production et la consommation d'nergie\r\n    struct EnergyRecord {\r\n        uint256 produced;  // Energie produite en kWh\r\n        uint256 consumed;  // Energie consomme en kWh\r\n        uint256 timestamp; // Horodatage de l'enregistrement\r\n    }\r\n\r\n    struct EnergyOffer {\r\n        uint256 id;             // Identifiant unique de l'offre\r\n        uint256 energyAmount;   // Quantit d'nergie de l'offre en kWh\r\n        uint256 pricePerUnit;   // Prix par unit d'nergie en Wei (ou autre devise)\r\n        uint256 timestamp;      // Horodatage de la cration de l'offre\r\n        address owner;\r\n        bool isActive;          // Propritaire de l'offre\r\n    }\r\n    struct User {\r\n        uint256 id;\r\n        string name;\r\n        string password;\r\n        string phone;\r\n    }\r\n    //authentification\r\n    mapping (address => uint) public userBalances;\r\n    uint256 public UserCount;\r\n    event UserAdded(uint256 _id);\r\n    event UserDeleted(uint256 _id);\r\n    event UserEdited(uint256 _id);\r\n    mapping(uint256 => User) public users;\r\n\r\n    // Mappages pour stocker les offres d'nergie, les enregistrements d'nergie, etc.\r\n    mapping(address => EnergyOffer[]) public energyOffers;\r\n    mapping(address => EnergyRecord[]) public energyRecords;\r\n    mapping(address => uint256) public balances;\r\n    mapping(address => uint256) public missingEnergyRecords;\r\n\r\n    uint256 private offerCounter = 0;  // Compteur pour gnrer des IDs uniques d'offres\r\n\r\n    event EnergyUpdated(address indexed user, uint256 produced, uint256 consumed, uint256 netEnergy, uint256 timestamp);\r\n    event MissingEnergy(address indexed user, uint256 missingEnergy, uint256 timestamp);\r\n    event EnergyBought(address indexed buyer, address indexed seller, uint256 energyAmount, uint256 price, uint256 timestamp);\r\n    event EnergyOfferCreated(address indexed seller, uint256 offerId, uint256 energyAmount, uint256 pricePerUnit, uint256 timestamp);\r\n    event OfferUpdated(uint256 offerId, uint256 newEnergyAmount, uint256 newPricePerUnit);\r\n    event OfferDeleted(uint256 offerId);  // Dclaration de l'vnement OfferDeleted corrige\r\n\r\n    // Crer une offre d'nergie\r\n    function createEnergyOffer(uint256 energyAmount, uint256 pricePerUnit) public {\r\n        require(energyAmount > 0, \"Energy amount must be greater than zero.\");\r\n        require(pricePerUnit > 0, \"Price per unit must be greater than zero.\");\r\n\r\n        int256 netEnergy = getNetEnergy(msg.sender);\r\n        require(netEnergy >= int256(energyAmount), \"Offer energy exceeds net energy available.\");\r\n\r\n        uint256 offerId = offerCounter;  // Utiliser la valeur actuelle de offerCounter comme offerId\r\n        offerCounter++;  // Incrmenter offerCounter aprs l'avoir utilis pour gnrer offerId\r\n\r\n        energyOffers[msg.sender].push(EnergyOffer({\r\n            id: offerId,\r\n            energyAmount: energyAmount,\r\n            pricePerUnit: pricePerUnit,\r\n            timestamp: block.timestamp,\r\n            owner: msg.sender,\r\n            isActive: true\r\n        }));\r\n\r\n        emit EnergyOfferCreated(msg.sender, offerId, energyAmount, pricePerUnit, block.timestamp);\r\n    }\r\n\r\n    // Obtenir toutes les offres d'nergie pour un utilisateur\r\n    function getEnergyOffers(address user) public view returns (EnergyOffer[] memory) {\r\n        return energyOffers[user];\r\n    }\r\n\r\n    // Enregistrer la production et la consommation d'nergie\r\n    function recordEnergyProduction(uint256 produced, uint256 consumed) public {\r\n        energyRecords[msg.sender].push(EnergyRecord({\r\n            produced: produced,\r\n            consumed: consumed,\r\n            timestamp: block.timestamp\r\n        }));\r\n\r\n        uint256 totalProduced = getTotalProduction(msg.sender);\r\n        uint256 totalConsumed = getTotalConsumption(msg.sender);\r\n\r\n        int256 netEnergy = int256(totalProduced) - int256(totalConsumed);\r\n\r\n        if (netEnergy < 0) {\r\n            uint256 missingEnergy = uint256(-netEnergy);\r\n            missingEnergyRecords[msg.sender] = missingEnergy;\r\n            delete energyRecords[msg.sender];\r\n            emit MissingEnergy(msg.sender, missingEnergy, block.timestamp);\r\n            emit EnergyUpdated(msg.sender, 0, 0, 0, block.timestamp);\r\n        } else if (netEnergy == 0) {\r\n            delete energyRecords[msg.sender];\r\n            emit EnergyUpdated(msg.sender, 0, 0, 0, block.timestamp);\r\n        } else {\r\n            emit EnergyUpdated(msg.sender, totalProduced, totalConsumed, uint256(netEnergy), block.timestamp);\r\n        }\r\n    }\r\n\r\n    function getMissingEnergy(address user) public view returns (uint256) {\r\n        return missingEnergyRecords[user];\r\n    }\r\n\r\n    // Function to buy energy from a seller\r\nfunction buyEnergy(address seller, uint256 offerId, uint256 energyAmount) public payable {\r\n    // Get the energy offer from the seller's offer list using the offerId\r\n    EnergyOffer storage offer = energyOffers[seller][offerId];\r\n    \r\n    // Ensure the offer is still active\r\n    require(offer.isActive, \"Offer is no longer active\");\r\n    \r\n    // Check if the seller has enough energy available in the offer\r\n    require(offer.energyAmount >= energyAmount, \"Not enough energy available for this offer\");\r\n\r\n    // Calculate the total price for the energy being purchased\r\n    uint256 price = energyAmount * offer.pricePerUnit;\r\n    \r\n    // Ensure the buyer has sent enough Ether to cover the cost of the energy\r\n    require(msg.value >= price, \"Insufficient funds to buy the energy.\");\r\n\r\n    // Ensure the seller has energy records\r\n    require(energyRecords[seller].length > 0, \"Seller has no energy records.\");\r\n\r\n    // Reduce the available energy in the seller's offer\r\n    offer.energyAmount -= energyAmount;\r\n\r\n    // If the energy offer is depleted, deactivate the offer\r\n    if (offer.energyAmount == 0) {\r\n        offer.isActive = false;\r\n        emit OfferDepleted(seller, offerId, block.timestamp); // Emit event when the offer is exhausted\r\n    }\r\n\r\n    // Record the energy consumption for both the seller and buyer\r\n    energyRecords[seller].push(EnergyRecord({\r\n        produced: 0,\r\n        consumed: energyAmount,\r\n        timestamp: block.timestamp\r\n    }));\r\n\r\n    energyRecords[msg.sender].push(EnergyRecord({\r\n        produced: energyAmount,\r\n        consumed: 0,\r\n        timestamp: block.timestamp\r\n    }));\r\n     \r\n    // Transfer the Ether to the seller\r\n    \r\n    (bool success, ) = payable(seller).call{value: msg.value}(\"\");\r\n    require(success, \"Failed to transfer Ether to seller.\");\r\n\r\n    // Emit an event to log the energy purchase\r\n    emit EnergyBought(msg.sender, seller, energyAmount, price, block.timestamp);\r\n}\r\n\r\n// Event to notify when an energy offer is depleted\r\nevent OfferDepleted(address indexed seller, uint256 offerId, uint256 timestamp);\r\n\r\n    // Obtenir tous les enregistrements d'nergie pour un utilisateur\r\n    function getEnergyRecords(address user) public view returns (EnergyRecord[] memory) {\r\n        return energyRecords[user];\r\n    }\r\n\r\n    function getTotalProduction(address user) public view returns (uint256 totalProduced) {\r\n        EnergyRecord[] memory records = energyRecords[user];\r\n        for (uint256 i = 0; i < records.length; i++) {\r\n            totalProduced += records[i].produced;\r\n        }\r\n    }\r\n\r\n    function getTotalConsumption(address user) public view returns (uint256 totalConsumed) {\r\n        EnergyRecord[] memory records = energyRecords[user];\r\n        for (uint256 i = 0; i < records.length; i++) {\r\n            totalConsumed += records[i].consumed;\r\n        }\r\n    }\r\n   \r\n\r\n    function getNetEnergy(address user) public view returns (int256) {\r\n        uint256 totalProduced = getTotalProduction(user);\r\n        uint256 totalConsumed = getTotalConsumption(user);\r\n        return int256(totalProduced) - int256(totalConsumed);\r\n    }\r\n\r\n    function getEnergyDataForGraph(address user) \r\n        public \r\n        view \r\n        returns (uint256[] memory productions, uint256[] memory consumptions, uint256[] memory timestamps) \r\n    {\r\n        uint256 recordCount = energyRecords[user].length;\r\n        productions = new uint256[](recordCount);\r\n        consumptions = new uint256[](recordCount);\r\n        timestamps = new uint256[](recordCount);\r\n\r\n        uint256 cumulativeProduction = 0;\r\n        uint256 cumulativeConsumption = 0;\r\n\r\n        for (uint256 i = 0; i < recordCount; i++) {\r\n            EnergyRecord memory record = energyRecords[user][i];\r\n\r\n            cumulativeProduction += record.produced;\r\n            cumulativeConsumption += record.consumed;\r\n\r\n            productions[i] = cumulativeProduction;\r\n            consumptions[i] = cumulativeConsumption;\r\n            timestamps[i] = record.timestamp;\r\n        }\r\n\r\n        return (productions, consumptions, timestamps);\r\n    }\r\n\r\n    // Modifier une offre d'nergie\r\n    function editEnergyOffer(\r\n        uint256 offerId,\r\n        uint256 newEnergyAmount,\r\n        uint256 newPricePerUnit\r\n    ) public {\r\n        bool offerExists = false;\r\n\r\n        // Parcourir les offres d'nergie de l'utilisateur\r\n        for (uint256 i = 0; i < energyOffers[msg.sender].length; i++) {\r\n            // Vrifier si l'ID de l'offre correspond\r\n            if (energyOffers[msg.sender][i].id == offerId) {\r\n                offerExists = true;\r\n\r\n                // Mettre  jour l'offre avec les nouveaux paramtres\r\n                energyOffers[msg.sender][i].energyAmount = newEnergyAmount;\r\n                energyOffers[msg.sender][i].pricePerUnit = newPricePerUnit;\r\n\r\n                // mettre un vnement pour notifier que l'offre a t mise  jour\r\n                emit OfferUpdated(offerId, newEnergyAmount, newPricePerUnit);\r\n                break;\r\n            }\r\n        }\r\n\r\n        // Si l'offre n'existe pas, lever une exception\r\n        require(offerExists, \"Offer does not exist\");\r\n    }\r\n\r\n    // Supprimer une offre d'nergie\r\n    function deleteEnergyOffer(uint256 offerId) public {\r\n        bool offerExists = false;\r\n        uint256 offerIndex = 0;\r\n\r\n        // Parcourir les offres d'nergie de l'utilisateur pour trouver l'offre  supprimer\r\n        for (uint256 i = 0; i < energyOffers[msg.sender].length; i++) {\r\n            if (energyOffers[msg.sender][i].id == offerId) {\r\n                offerExists = true;\r\n                offerIndex = i;\r\n                break;\r\n            }\r\n        }\r\n\r\n        // Si l'offre n'existe pas, lever une exception\r\n        require(offerExists, \"Offer does not exist\");\r\n\r\n        // Supprimer l'offre en dplaant le dernier lment  l'index de l'offre  supprimer\r\n        energyOffers[msg.sender][offerIndex] = energyOffers[msg.sender][energyOffers[msg.sender].length - 1];\r\n        energyOffers[msg.sender].pop(); // Retirer le dernier lment\r\n\r\n        // mettre un vnement pour signaler que l'offre a t supprime\r\n        emit OfferDeleted(offerId);\r\n    }\r\n    function getUserCount() public view returns (uint256) {\r\n        return UserCount;\r\n    }\r\n\r\n    function addUser(\r\n        string memory _name,\r\n        string memory _password,\r\n        string memory _phone\r\n    ) public {\r\n        users[UserCount] = User(\r\n            UserCount,\r\n            _name,\r\n            _password,\r\n            _phone\r\n        );\r\n        userBalances[msg.sender] = ++UserCount;\r\n\r\n        emit UserAdded(UserCount);\r\n    }\r\n\r\n    function deleteUser(uint256 _id) public {\r\n        delete users[_id];\r\n        UserCount--;\r\n        emit UserDeleted(_id);\r\n    }\r\n\r\n    function editUser(\r\n        uint256 _id,\r\n        string memory _name,\r\n        string memory _password,\r\n        string memory _phone\r\n    ) public {\r\n        users[_id] = User(_id, _name, _password, _phone);\r\n        emit UserEdited(_id);\r\n    }\r\n\r\n    function signin(string memory _name, string memory _password) public view returns (bool) {\r\n        for (uint256 i = 0; i < UserCount; i++) {\r\n            if (keccak256(bytes(users[i].name)) == keccak256(bytes(_name)) &&\r\n                keccak256(bytes(users[i].password)) == keccak256(bytes(_password))) {\r\n                return true;\r\n            }\r\n        }\r\n        return false;\r\n    }\r\n}\r\n",
  "sourcePath": "C:\\Users\\Lenovo\\Downloads\\solar_energy_dapp\\solar-energy-project\\contracts\\EnergySolar.sol",
  "compiler": {
    "name": "solc",
    "version": "0.8.0+commit.c7dfd78e.Emscripten.clang"
  },
  "schemaVersion": "3.4.16",
  "updatedAt": "2024-12-12T07:12:00.269Z",
  "networkType": "ethereum",
  "devdoc": {
    "kind": "dev",
    "methods": {},
    "version": 1
  },
  "userdoc": {
    "kind": "user",
    "methods": {},
    "version": 1
  }
}